:020000040800F2
:100000000010002020020008270200082702000834
:10001000270200082702000827020008270200081C
:10002000270200082702000827020008270200080C
:1000300027020008270200082702000827020008FC
:1000400027020008270200082702000827020008EC
:1000500080B483B000AF786003E07B6803F1FF33C6
:100060007B607B68002BF8D107F10C07BD4680BC94
:10007000704700BF80B400AF40F60803C4F201032C
:100080001B68DBB21846BD4680BC704780B483B0A5
:1000900000AF78607B68012B0CD140F60C03C4F2F2
:1000A000010340F60C02C4F20102126842F400524D
:1000B0001A600EE07B68002B0BD140F60C03C4F2F3
:1000C000010340F60C02C4F20102126822F400524D
:1000D0001A6007F10C07BD4680BC704780B400AFC2
:1000E00041F21803C4F2020341F21802C4F2020200
:1000F000126842F004021A604FF40063C4F2010374
:100100004FF40062C4F20102126822F470021A6015
:100110004FF40063C4F201034FF40062C4F2010221
:1001200012681A6040F60403C4F2010340F60402A8
:10013000C4F20102126822F470021A6040F604034D
:10014000C4F2010340F60402C4F20102126842F054
:1001500022321A60BD4680BC704700BF80B500AF38
:10016000FFF7BCFF00F028F8FCE700BF80B582B0C5
:1001700000AF786040F22823C0F600031B687A685D
:100180009A4209DC40F20003C2F2000340F2052269
:10019000C0F600021A6008E040F20003C2F2000359
:1001A00040F2E912C0F600021A6000F013F807F1FD
:1001B0000807BD4680BD00BF80B582B000AFFFF725
:1001C00059FF78607868FFF7D1FF07F10807BD464F
:1001D00080BD00BF80B500AF40F20003C2F2000353
:1001E0001B68984780BD00BF80B500AF4FF000008E
:1001F000FFF74CFF44F24020C0F20F00FFF728FF4A
:1002000080BD00BF80B500AF4FF00100FFF73EFF9B
:1002100044F24020C0F20F00FFF71AFF80BD00BF7C
:08022000FFF79CFFFEE7FBE77E
:0402280014000000BE
:0400000508000000EF
:00000001FF
