:020000040800F2
:100000000028002085020008C9010008D501000869
:10001000DB010008E1010008E70100080000000022
:10002000000000000000000000000000ED010008DA
:10003000F901000800000000050200081102000894
:10004000CD020008CD020008CD020008CD02000854
:10005000CD020008CD020008CD020008CD02000844
:10006000CD020008CD020008CD020008CD02000834
:10007000CD020008CD020008CD020008CD02000824
:10008000CD020008CD020008CD020008CD02000814
:10009000CD020008CD020008CD020008CD02000804
:1000A000CD020008CD020008CD020008CD020008F4
:1000B000CD020008CD02000800000000CD020008BB
:1000C000CD0200080000000000000000CD02000882
:1000D00000000000CD020008CD0200080000000072
:1000E000CD020008CD020008CD020008000000008B
:1000F0000000000000000000000000000000000000
:0C01000000000000000000005FF808F1A3
:10010C0010B5054C237833B9044B13B10448AFF345
:10011C0000800123237010BD0400002000000000AB
:10012C003C03000808B5034B1BB103490348AFF36C
:10013C00008008BD00000000080000203C030008FF
:10014C0080B483B000AF1A4B1B68194A43F0040308
:10015C001360184B1B68174A23F470031360154B7C
:10016C001B68144A43F400131360134B1B68124AA8
:10017C0043F40053136000237B6002E07B6801337F
:10018C007B607B6842F20F729342F7DD0A4B1B686F
:10019C00094A23F40053136000233B6002E03B68E0
:1001AC0001333B603B6842F20F729342F7DDDCE7B0
:1001BC0018100240040801400C08014080B400AF44
:1001CC0000BFBD4680BC704780B400AFFEE780B472
:1001DC0000AFFEE780B400AFFEE780B400AFFEE7EF
:1001EC0080B400AF00BFBD4680BC704780B400AF88
:1001FC0000BFBD4680BC704780B400AF00BFBD4699
:10020C0080BC704780B500AF00F05CF800BF80BDCB
:10021C0080B400AF154B1B68144A43F00103136004
:10022C00124B5A681149124B13404B600F4B1B6811
:10023C000E4A23F0847323F4803313600B4B1B683A
:10024C000A4A23F480231360084B5B68074A23F4A3
:10025C00FE035360054B4FF41F029A60054B4FF0A1
:10026C0000629A6000BFBD4680BC7047001002401F
:10027C000000FFF800ED00E0002103E00B4B5B58A1
:10028C00435004310A480B4B42189A42F6D30A4A9F
:10029C0002E0002342F8043B084B9A42F9D3FFF7E3
:1002AC00B7FF00F021F8FFF74BFF70475C03000825
:1002BC000000002004000020040000202400002086
:1002CC00FEE7000080B400AF054B1B781A46054BC7
:1002DC001B681344034A136000BFBD4680BC7047C3
:1002EC00000000202000002070B500250C4E0D4CA5
:1002FC00A41BA410A54209D100F01AF800250A4E3F
:10030C000A4CA41BA410A54205D170BD56F825308B
:10031C0098470135EEE756F8253098470135F2E756
:10032C005403000854030008540300085803000841
:10033C00F8B500BFF8BC08BC9E467047F8B500BFC6
:08034C00F8BC08BC9E46704796
:04035400310100086B
:040358000D0100088B
:04035C00010000009C
:040000050800028568
:00000001FF
